:020000040800F2
:10000000800400209D010008FB020008E7020008B0
:10001000F9020008E50100080507000800000000DB
:100020000000000000000000000000000D050008B6
:10003000E7010008000000001D030008AD050008EE
:10004000B7010008B7010008B7010008B7010008B0
:10005000B7010008B7010008B7010008B7010008A0
:10006000B7010008B7010008B7010008B701000890
:10007000B7010008B7010008B7010008B701000880
:10008000B7010008B7010008B7010008B701000870
:10009000B7010008B7010008B7010008B701000860
:1000A000B7010008B7010008B7010008B701000850
:1000B000B7010008B7010008B7010008B701000840
:1000C000B7010008B7010008B7010008B701000830
:1000D000ED030008B7010008B7010008B7010008E8
:1000E000F9010008B7010008B7010008B7010008CE
:1000F000B7010008B7010008B7010008B701000800
:10010000B7010008B7010008B7010008B7010008EF
:10011000B7010008B7010008B7010008B7010008DF
:10012000B7010008B7010008B7010008B7010008CF
:10013000B7010008B7010008B7010008B7010008BF
:10014000B7010008B7010008B7010008B7010008AF
:10015000B7010008B7010008B7010008B70100089F
:10016000B7010008B7010008B7010008B70100088F
:10017000B7010008B7010008B7010008B70100087F
:10018000B7010008B7010008DFF80CD000F018F83C
:10019000004800476907000880040020064880479F
:1001A00006480047FEE7FEE7FEE7FEE7FEE7FEE75C
:1001B000FEE7FEE7FEE7FEE7B1050008890100085B
:1001C000064C074D06E0E06840F0010394E80700A4
:1001D00098471034AC42F6D3FFF7DAFFB0080008B6
:1001E000D0080008FEE77047024908600868002848
:1001F000FCD170470000002010B54FF48064204609
:1002000000F014F8002809D0402000F013F900F0A5
:100210006BF82046BDE8104000F002B810BD0000A9
:100220000149086070470000143C0140064A01463D
:1002300000201268044B0A4014331B680B4202D0A2
:10024000002A00D001207047003C0140F0B5002298
:1002500001264FF0030C0C6806FA02F31C409C4286
:100260002DD1056853000CFA03F4A54305600D7900
:1002700007689D403D4305600D79012D01D0022D99
:1002800012D18568A54385604C7985689C402C43D4
:100290008460446806FA02F5AC43446044688D7992
:1002A0009540ADB22C434460C46855000CFA05F784
:1002B000BC43C460CC799C40C3681C43C460521CDE
:1002C000102AC8D3F0BD4B07DB0E9A40C90810B501
:1002D00000EB8100016A0F249C40A1430162016A86
:1002E0001143016210BDFEE702480178491C01700C
:1002F0007047000048000020FEE770470907090E1C
:10030000002803DA00F00F00024A00E0024A81549C
:100310007047000014ED00E000E400E070470000CA
:10032000044A0029116801D0014300E081431160B3
:100330007047000030380240044A0029116801D09B
:10034000014300E0814311607047000040380240E3
:1003500030B5224B1968224C11F00C0104D0214D0C
:10036000042903D0082903D004601DE005601BE0C8
:100370001A4A121F1168C1F3805C1168BCF1000FAA
:1003800001F03F0102D0B5FBF1F101E0B4FBF1F166
:1003900014681268C4F388146143C2F30142521C0A
:1003A0005200B1FBF2F1016019680F4A01F0F0014F
:1003B0000909545C0168E14041601C6804F4E054A0
:1003C000A40A145D21FA04F484601B6803F46043FA
:1003D0005B0BD25CD140C16030BD000008380240E8
:1003E0000024F40040787D0160000020802000F0AF
:1003F00021B800001CB5044601211020FFF790FF32
:1004000001208DF8040000218DF806108DF80700FA
:1004100002208DF80500009469460248FFF716FF98
:100420001CBD0000001002400149488370470000D5
:10043000001002400149088370470000001002408C
:100440002DE9FC41884604462E492E48103150F8CB
:10045000240051F8241008430121FFF761FF2948C7
:100460000121103850F82400FFF766FF2548264E7A
:10047000203830F81400C2B22248303830F8141056
:1004800056F82400FFF71FFF1E4806F11007183822
:1004900030F81400C2B21B48283830F8141057F84E
:1004A0002400FFF710FF00208DF8060001208DF8D2
:1004B00007001448022540388DF8045030F8140025
:1004C00000908DF8055056F824006946FFF7BEFEEF
:1004D0000C488DF804503838694630F81400009004
:1004E00057F82400FFF7B2FEA6F11005414655F873
:1004F000240000F0A7F855F82400012100F090F83E
:10050000BDE8FC819008000814000020704700003E
:10051000224A0020116841F4803111604FF4A06339
:10052000116800F1010011F4003F01D19842F7D1A8
:100530001068800331D519484030016841F080517E
:1005400001601748016841F4804101601348083098
:1005500001680160016841F400410160016841F4F3
:10056000A0510160031F0F491960116841F08071AB
:10057000116011688901FCD50B4A40F205611160D8
:10058000016821F003010160016841F0020101608E
:100590000168C1F381010229FAD170470038024095
:1005A0000070004008544007003C024000F02EB8A4
:1005B000124810B5016841F47001016010480168EB
:1005C00041F0010101600E4A002108321160026809
:1005D0000C4B1A400260031D0B4A1A60026822F499
:1005E0008022026006480C300160FFF791FF03494A
:1005F0004FF000608039086010BD000088ED00E019
:1006000000380240FFFFF6FE103000240348016866
:10061000002902D00168491E0160704700000020D7
:100620000029818902D041F4005101E021F40051F8
:10063000818170470246002012880A4200D00120C2
:10064000704700007FB50446008A0D4620F44051F3
:10065000E88808432082A18941F20C608143A88880
:100660002A8910436A890A431043A081A08A20F492
:100670004071A8890843A0826846FFF769FE1D48BB
:10068000844202D01C48844201D1039800E00298C1
:10069000A1890904002900EBC00101EB00102968C1
:1006A00002DA4FEA410101E04FEA8101B0FBF1F0CB
:1006B0006422B0FBF2F14FEA01114FEA11136FF01F
:1006C00018056B4300EB8300A3891D044FF0320330
:1006D00006D503EBC000B0FBF2F000F0070005E028
:1006E00003EB0010B0FBF2F000F00F000843208194
:1006F0007FBD00000010014000140140C1F308015B
:1007000081807047FEE702E008C8121F08C1002A76
:10071000FAD170477047002001E001C1121F002A82
:10072000FBD1704701490860704700005C00002061
:1007300070B5074D044680212868FFF77BFF00282D
:10074000F9D021462868BDE87040FFF7D7BF000008
:100750005C00002010B5044601E0FFF7E9FF14F843
:10076000010B0028F9D110BD2D484FF4E1310024D0
:1007700001608480C480048184810C214181014610
:100780000220FFF75DFE2748FFF7CCFF26A0FFF70A
:10079000E1FFE020FFF72EFE29484FF47A71006850
:1007A000B0FBF1F0B0F1807F38D220F07F404FF005
:1007B000E025401E6861661E0F213046FFF79EFD52
:1007C000AC610720286100213046FFF797FD20200B
:1007D000FFF72AFE4020FFF72DFE8020FFF724FEC2
:1007E0004FF4FA742020FFF725FE4020FFF71CFE8F
:1007F0008020FFF71FFE2046FFF7F6FC2020FFF7C2
:1008000013FE4020FFF716FE8020FFF70DFE204666
:10081000FFF7EAFC0BA0FFF79DFFE3E7FEE7000010
:1008200070000020004800400A0D57656C636F6D32
:100830006520746F205553415254310A0D00000059
:1008400034000020494245477230780A0D0000000C
:100850000002200000010004000440000002000823
:100860000900050008000A000A00060009000B0044
:10087000070007000700080007000700070008003E
:10088000100000000000020000000400000008004A
:10089000010000000800000008000000080000003F
:1008A0000100000008000000080000000400000033
:1008B000D0080008000000207000000006070008B3
:1008C000400900087000002010040000160700080E
:1008D00000000000001001400044004000480040BB
:1008E000004C004000000240000C0240000C02409E
:1008F0000008024000000240000C0240000C0240D0
:1009000000080240007A030A000000000000000016
:1009100001020304060708090000000000000000AF
:1009200000000000000000000000000000000000C7
:100930000000000001020304010203040607080985
:040000050800018965
:00000001FF
