:020000040800F2
:100000000000022089490008D9490008D14A0008A7
:10001000E54A0008094B00082D4B000800000000CD
:10002000000000000000000000000000514B00082C
:10003000534B000800000000554B000841500008D9
:10004000D5490008D5490008D5490008D549000818
:10005000D5490008D5490008C35E0008C95E0008FC
:10006000CF5E0008D55E0008DB5E0008D5490008B9
:10007000D5490008D5490008D5490008D5490008E8
:10008000D5490008D5490008D5490008D5490008D8
:10009000D5490008D5490008D5490008E15E0008A7
:1000A000D5490008D5490008D5490008295F00084E
:1000B0002F5F0008355F00083B5F0008D549000846
:1000C000D5490008D5490008D5490008D549000898
:1000D000D5490008A55E0008AB5E0008B15E0008C7
:1000E000055F0008D5490008D5490008D549000832
:1000F000D5490008D5490008475F0008D5490008E0
:10010000D5490008D5490008415F0008D5490008D5
:10011000B75E0008BD5E0008D5490008D549000853
:100120001D560008D5490008D5490008D5490008E2
:10013000D5490008D5490008D5490008D549000827
:10014000D5490008D5490008D5490008D549000817
:10015000D5490008D5490008D5490008D549000807
:10016000D5490008D5490008D5490008D5490008F7
:10017000D5490008D5490008D5490008D5490008E7
:10018000D5490008D549000830B585B005F036FBE3
:100190000128054600D0FEE705F07AFF00F040F99F
:1001A00005F02EFF03F080FC05F02AFF174C00F04D
:1001B0003BF905F025FF17F0A7FA05F021FF2068AD
:1001C000134917F0E5FE28B96068114917F0E0FE01
:1001D00070B100E0002517F04FFB0E4954F82500E0
:1001E000019102900023022001A9039314F098FFCB
:1001F00000F0F4FC38B9074A029001A901200192ED
:1002000014F08EFF01E000F02BFCFEE70000002060
:1002100003FA020851CF020800207047162303603A
:100220004FF0FF30704700000C48012B00EB01112C
:1002300003D0022B03D053B903E04B6800E00B89D5
:100240009A180B899A4205D84A60104670474FF0B9
:10025000FF3070474FF0FF30704700BFE0010020D3
:100260002DE9F0410C6820460F46FFF7D5FFF8B1A5
:10027000104D00E044462046FFF7CEFF04F1010890
:10028000064605F8010F0028F4D10B4D0B4B4046F4
:100290006B60FFF7C1FF8046A01CFFF7BDFF0202A5
:1002A00008EB0201033460182960AE60386028460C
:1002B000BDE8F081B7090020D8090020B809002066
:1002C000002008607047000010B50C4659B10B784B
:1002D0004BB108461AF050FA012808D120460649C9
:1002E00019F0B8FE28B905480021016010BD0020B2
:1002F00010BD002010BD00BF98CF0208D80100201B
:1003000070B50B480901441866682589AD1BAB42DE
:1003100038BF1D4643580749F618104689192A4622
:1003200018F088FE606843196360284670BD00BFFE
:10033000E00100209ACF0208064A08B502EB01103E
:100340001022002118F04CFF034B1868421E1A605F
:10035000002008BDE0010020DC0100202DE9F04173
:10036000804688B00D46144600270026F019A8479D
:100370000DF8060008B91EB91AE001361E2EF5D197
:10038000F619701CA8470746B01CA84700023F1882
:10039000694640461E221AF01FFABFB2033628B93A
:1003A000606026602781E560012002E0F719DCE744
:1003B000304608B0BDE8F081F0B5164E3368042B26
:1003C00085B0044602D11721016008E008466A465C
:1003D0001149FFF7C3FF012804D0022020604FF02D
:1003E000FF3414E00D4B00241D46DA682AB10134B5
:1003F0001033042CF9D14FF0FF3404AF17E90F008C
:1004000005EB041585E80F0031684B1C336020466E
:1004100005B0F0BDDC01002019020008E001002059
:100420000048704768CF02080020704710B50446A6
:100430000A480021036842F2107098470130F7D152
:10044000012C09D1064C18202368984718202268EF
:10045000904721681820884710BD00BF2402002063
:1004600020020020024A034B10601960704700BF51
:1004700020020020240200202DE9F0470124A2B030
:1004800006464FF000084FF480651423274693E09A
:100490001FB15048036843209847DFF844A14E48F5
:1004A000DAF8002000219047421C00F084801828D0
:1004B00000F28180494911FA00F37CD5042808D163
:1004C00044480368062098470020FFF7AFFF4046E6
:1004D0007CE0182809D13F4906200A68904700208F
:1004E000FFF7A4FF4FF0FF3070E00027DAF800308C
:1004F000394800219847431C31D001AAB85401372C
:10050000842FF3D19DF804A0A24528D1E1439DF8A2
:100510000570C8B2874222D100220DF105011346B1
:1005200011F8017F082083EA072313F4004F4FEAF4
:1005300043031CBF83F4805383F021030138F4D1BB
:100540000132802AECD19DF886C01B04190CBCEB4B
:10055000136F04D19DF887E0CAB2964504D01D48B8
:1005600001681520884725E008F18007FFF75EFF46
:10057000AF420DD905F500753068294618F090FF97
:1005800028B90120FFF752FF6FF003001EE0306032
:10059000104906200A68904733680DF1060103EB05
:1005A0000800802218F046FD0AF10104E4B2B846C2
:1005B0004FF0140900274B4603F1FF39002B7FF45D
:1005C00067AF0120FFF732FF6FF0020022B0BDE8F5
:1005D000F08700BF2002002040420F00800000484A
:1005E0002402002008B50449044818F055FE0448C8
:1005F000BDE8084018F0CCBEACCF02089BCF020883
:10060000B1CF020808B50E4818F0C2FE0D4818F028
:10061000BFFE0D4818F0BCFE0C4818F0B9FE0C489F
:1006200018F0B6FE0B4818F0B3FE0B4818F034FE75
:100630000A4818F0ADFE0A48BDE8084018F0A8BE08
:10064000F9CF020809D002082ED002084ED00208C5
:1006500080D00208A4D00208D5D0020841D10208F7
:1006600074D102082DE9F04104780746002C48D0E7
:10067000202119F077FC002845D006464FF00008ED
:1006800006F8018B2021304619F06CFC00283AD086
:1006900080F800802849384617F07AFC054628B9CA
:1006A0002648394618F0F8FD2C462EE030462449FD
:1006B00017F06EFC044620B93146224818F0ECFDD4
:1006C00023E04FF4807018F033FC064618B91E483A
:1006D00018F05EFE19E001214FF480722B4630467F
:1006E00017F0A0FD0746012130463A46234618F090
:1006F000D3FAFF2FB844EED84146144818F0CCFD89
:1007000008E0254601E004460546114818F040FE81
:1007100025B10026284617F0AFF800E02E4614B1A8
:10072000204617F0A9F826B13046BDE8F04118F090
:1007300007BCBDE8F08100BF97D102089AD102083A
:10074000B9D10208BCD10208DBD10208EDD1020800
:10075000FED1020870B503780446FBB922E02021DF
:10076000204619F0FFFB0021017005461049204684
:1007700017F00EFC064620B90BE0C0B218F0BAFD27
:10078000304617F009FA431CF7D1304617F074F8D9
:1007900003E00848214618F07FFD6C1C20780028F3
:1007A000DDD170BD0448BDE8704018F0F1BD00BF58
:1007B00097D102080CD202081FD202082DE9F84393
:1007C00000243EE0204605F04BFC436A0646002B21
:1007D00036D0816A002933D0C26A002A30D005F0B1
:1007E00067FC054600282BD01A48314618F054FD06
:1007F0004FF0000816E07968164818F04DFD78684B
:1008000019F0BAFF814604E0202018F073FD09F1C9
:100810000109B9F11E0FF7D90F48396818F03CFDEE
:1008200038688044284605F095FC07460028E2D148
:100830000A483146424618F02FFD284605F0ACFC28
:10084000013405F01FFC8442BCD30A20BDE8F84304
:1008500018F050BD52D2020856D202085FD20208E8
:100860002DE9F04105464FF4806018F061FB444EDD
:100870003060344608B9434810E0434818F00CFD96
:100880003046FFF7F9FD071E0CDA306818F058FB08
:1008900000233A1D0CBF3D483D483360BDE8F041A0
:1008A00018F076BD3168013FCB191F46013B3A78FD
:1008B0001A2AFAD001373748791A18F0EDFC2E7849
:1008C00036B328463449DFF8B88017F061FB236857
:1008D000064658B92946314818F0DEFCD8F8000021
:1008E00018F02EFBC8F80060BDE8F081FF1A012166
:1008F0003A461846334618F0CFF9B8420CBF28489C
:100900002848294618F0C8FC304616F0B5FF30E0FC
:100910000CF074FC054640B9234818F039FD2068F6
:1009200018F00EFB2560BDE8F08114F039F821685D
:100930001E4B7A1A28460FF06DFE074620B1284656
:100940004FF0FF3132460BE0284639464FF0FF3278
:100950003B4606F0B5FB48B128464FF0FF313A461A
:1009600006F08DF80146124818F096FC28460CF067
:1009700053FC206818F0E4FA00202060BDE8F08104
:100980002802002078D2020892D20208A8D20208D7
:10099000B5D20208C2D2020871D90208D6D2020822
:1009A000EED2020808D302082BD3020846D302086D
:1009B0004DD30208F0B5264B04788BB00546009362
:1009C000002C2FD0202119F0CDFA01AF002427E010
:1009D000082C04D121461F4818F05EFC36E006467C
:1009E000002006F8010B202147F8045B304619F07F
:1009F000B9FA2B780134272B01D0222B0FD10135E6
:100A000047F8045C04E0072B02D1202105F8011C03
:100A10002A4615F8013B002BF5D102F8013C35467A
:100A20000028D5D10DF1280C01340CEB84010020F5
:100A300041F8280C084818F0ABFC2046694614F031
:100A40006FFB064B1A68506816F070FE0BB0F0BDD5
:100A500051CF020858D3020880D302082800002092
:100A6000F0B5554955488FB018F016FC07E00A203C
:100A700018F040FC52480368586816F057FE0120F1
:100A8000322201A94F4B02F077FD0130EFD09DF8E3
:100A900004100029F3D0012001A902F0D3FE01A81F
:100AA00019F06AFE0EAD2C1814F8352C0A2A03D062
:100AB00001A8454919F032FA01AB06E00D2D01D02D
:100AC0000A2D02D1202603F8016C13F8015B002DDA
:100AD000F4D12C462E4614E0F35D272B01D0222BB7
:100AE00003D144B1AB4207D108E0202B08D13CB17F
:100AF0000723F35500E01D46012401E000252C46A4
:100B0000013601AF384619F037FE8642E4D30CB106
:100B10002E4827E038460CE0651C06E019F02CFE54
:100B2000A11C0246284618F0FDFA617820292846C3
:100B3000F4D0202119F016FA04460028ECD101A8BF
:100B400019F01AFE01289AD09DF80400202814BF3D
:100B500001AF0DF105073846202119F003FA0646CA
:100B600018B91B4818F014FC89E700240470194ACE
:100B700052F8340002EBC40518B9154818F008FC07
:100B80000AE0394619F0A6F920B96B6823B1701C48
:100B9000984701E00134EAE72B68002B3FF46FAF80
:100BA000696800297FF46BAF0B48006808B118F042
:100BB000C7F90FB0F0BD00BFACCF020899D302084F
:100BC00028000020D0D30208D7D40208D7D30208C7
:100BD000EDD3020824D4020828020020024B002290
:100BE0001A600120704700BF28020020014B1868DE
:100BF000704700BF30020020014B1868704700BFEB
:100C0000400200200A2808B50AD1074B07491A6894
:100C100009688A4201D201321A60054B002119602D
:100C200004490A68904708BD4402002030020020B1
:100C30002C0200203802002038B504460D4605E09D
:100C40000448036814F8010B9847013D002DF7D1C3
:100C500038BD00BF380200200FB47FB508AB0021BB
:100C600053F8042B8DF812101B205B218DF8040023
:100C70008DF805100DF106000C21059320F0C0FA47
:100C800001A819F079FD014601A8FFF7D5FF07B0CB
:100C90005DF804EB04B0704710B5044621460448E3
:100CA000FFF7DAFF034B1A68A4181C6010BD00BFE1
:100CB0007CD402082C02002010B5044621460448CA
:100CC000FFF7CAFF034B1A68141B1C6010BD00BF5E
:100CD00080D402082C02002010B5044621460448A6
:100CE000FFF7BAFF034B1A68A4181C6010BD00BFC1
:100CF00084D402084402002010B50446214604486A
:100D0000FFF7AAFF034B1A68141B1C6010BD00BF3D
:100D100088D402084402002038B50446224604481C
:100D20000D46FFF799FF0348034B04601D6038BD73
:100D30008CD402082C020020440200200148FFF756
:100D40008BBF00BFB1D5020808B50448FFF784FF88
:100D50000348044A00230360136008BD93D40208CB
:100D6000440200202C020020014B1868704700BF8D
:100D70002C020020014B1868704700BF440200207D
:100D800008B504490B689847431C02D0024B1A6807
:100D9000904708BD3C0200203402002010B5084CEA
:100DA000206008480160084908480A60084A02991A
:100DB000036011600748084A00230360136010BDF8
:100DC0003002002040020020380200203C020020B7
:100DD00034020020440200202C02002038B54D4A85
:100DE00011680B185C7814F0970440F091801B2870
:100DF00045D1002320464FF48071474A02F0BAFDE6
:100E000001307AD04FF4807100232046424A02F02C
:100E1000B1FD411C74D0A0F1410CBCF1030F11D8FD
:100E2000432809D044280AD040F2011542280CBFBB
:100E300028464FF4807038BD40F2031038BD4FF49F
:100E4000817038BDA0F13105052D59D80023204609
:100E50004FF48071304A02F08DFD7E2850D1052D6F
:100E60004ED8DFE805F0034D4D5006094FF482706F
:100E700038BD4FF4837038BD40F2071038BD0D28DF
:100E800009D120464FF48071234A002302F072FDFD
:100E90004FF4847038BD092817D009DC032820D00E
:100EA00002DC01282CD116E0052817D008280AE01A
:100EB00015281CD004DC0B281CD0142820D113E0EA
:100EC0001A2805D07F281BD120E040F2091038BD38
:100ED0004FF4867038BD40F20D1038BD4FF4877066
:100EE00038BD40F20F1038BD4FF4887038BD40F265
:100EF000111038BD4FF4897038BD40F20B1038BD69
:100F00004FF48A7038BD40F2051038BD4FF485703B
:100F100038BD00BF24000020A086010020B94FF496
:100F200080710022002305E0034B00204FF4807104
:100F30004FF0FF3202F01EBDFFFF0F0002460B46CE
:100F400000204FF4807102F015BD02460B460020D0
:100F50004FF4807102F00EBD0146002002F048BD42
:100F60000146002002F044BD002002F041BD000017
:100F700013B5002404F0EAFF0822022320464FF4B0
:100F8000E131009403F04CFF2146204602F086FD3B
:100F90000721204602F032FD094805F0EDFA094824
:100FA00005F0F0FA08480949FFF75CFA084B094ACE
:100FB000009319205021084BFFF7F0FE1CBD00BF25
:100FC000690F00084B0F0008610F00083D0F000873
:100FD000DD0D0008590F00081D0F000804288CBF04
:100FE000002001207047042804D80F298CBF00205E
:100FF000012070470020704702288CBF002001208C
:10100000704703288CBF00200120704704F016BAF7
:101010000F288CBF00200120704740F6FF707047FA
:1010200010B50C4600F0B2FC037864F34103037082
:1010300010BD08B500F0AAFC017801F0010080F0B5
:10104000010008BD70B5044600200E4600F0A6FC65
:10105000C36EB342054605D090F860106FF3C3012C
:1010600080F86010204604F003FAEE6670BD0000C0
:101070000B4A034692E8030082B002AA012B02E960
:10108000030009D802EB830353F8080C430704D08C
:1010900020F00700083000E0002002B0704700BFD9
:1010A00098D402080B4A034692E8030082B002AAD1
:1010B000012B02E9030009D802EB830353F8080C63
:1010C000420704D020F00700083800E0002002B0FA
:1010D000704700BFA0D4020810B50446631E08463E
:1010E000D9B203290DD80C214B430949CB585BB128
:1010F000032C114603D1BDE8104000F039BA9847DF
:1011000010BD6FF0010010BD6FF0020010BD00BFF8
:1011100094D802080246531E0846D9B2032910B5D6
:101120000DD80A490C2404FB03135B6853B1032A4E
:1011300003D1BDE8104000F047BA984710BD6FF0EA
:10114000010010BD6FF0020010BD00BF94D802086E
:1011500038B50446631E0846D9B203290ED80A4999
:101160000C2505FB03139B685BB1032C114603D1CF
:10117000BDE8384000F04ABA984738BD6FF001002A
:1011800038BD6FF0020038BD94D8020838B5054666
:101190000C4602F031F8284602F0F0F8034608B198
:1011A0002046984738BD002300E001334008FCD1B9
:1011B0001846704710B504460846FFF7F4FFC1B261
:1011C0002046BDE8104000F06DBD0000034B1870D4
:1011D000187842B20132FBD1704700BF08000020EE
:1011E0002DE9F8434FF400770024224D224855F8AA
:1011F0002420511C45F8241055F8242050F82430A0
:101200009A42A94621D31D4BDFF87C801978012230
:1012100012FA04F6F6B246EA0100187098F800C017
:1012200016EA0C0F03D00320394601F0E5FF144BFA
:101230001878064203D0002145F8241005E098F8FC
:10124000002022EA060688F8006001340137042CE9
:10125000BFB2CAD10B4B197848B2421C08D093F8E0
:1012600000C04FFA8CF10020FF2249F821001A70CB
:10127000BDE8F883580200206C02002068020020BC
:101280007C02002008000020690200200120704735
:10129000B0F5007F06D3A0F5007003288CBF0020B6
:1012A000012070470B2805D9A0F58073584240EB08
:1012B00003007047012070472DE9F041A0F500754B
:1012C000032D044616461F461CD8002E77F1010157
:1012D0003BD20A23A2FB030103FB07111C4A002394
:1012E00026F0CAF8064620460F46FFF76FFF194B57
:1012F00053F8251000230A46B24273EB0701F6D3D8
:10130000BDE8F081B0F5807F1BD156EA07031CD001
:1013100003F0B2FF04460D4603F0AEFFA04271EBAE
:10132000050305D24FF0FF320B4B801841EB030150
:10133000001B61EB0501B04271EB0703ECD3BDE884
:10134000F081BDE8F04103F083BEBDE8F08100BF4D
:1013500040420F0058020020FFFF0F002DE9F84324
:10136000DDE90867904699460321002200230446E0
:1013700000F036F8464577EB090305460ED2002209
:1013800000232046062100F02BF8012200249219A8
:1013900044EB0703121843EB010301E032463B46DE
:1013A0000D4CB2EB080263EB0903A2FB040104FB42
:1013B00003112A46002326F05FF80B460749024630
:1013C0006FF00100904271EB03043CBF02460B46F4
:1013D00010461946BDE8F88340420F00FFFF0F009A
:1013E000B0F5807F73B5044615D1062933D8DFE800
:1013F00001F00404474709100C0002B0BDE870403A
:1014000003F03ABF4FF0FF3001E06FF001002049D8
:101410003BE0012038E0A0F50076032E11D9042925
:1014200008D1062100220023FFF7DAFFCDE90001F1
:1014300020461EE0052918D002B0BDE8704003F038
:1014400037BE062907D8DFE801F0040819190D1086
:101450001D00FFF7BBFE002016E00E4850F82630B6
:10146000184611E04FF0FF3200E001220023CDE9E1
:10147000002300220023FFF771FF06E00A2003E0AB
:10148000054801E04FF0FF30002102B070BD00BF01
:10149000FFFF0F005802002040420F002DE9F047E7
:1014A000A0F50075032D064690469946DDF820A06C
:1014B00047D8B8F1000F79F101013CD2012717FAA2
:1014C00005F458EA0903E4B20CD1244BE44393F841
:1014D00000C0E0B200EA0C011970214B1A7800EA52
:1014E000020424E00A23A2FB030103FB09111D4AA5
:1014F000002325F0C1FF02460B4652EA03011DD02E
:1015000019491A4B41F8252018781549BAF1010FED
:101510000CBFA043204318700A7822EA040E30461C
:1015200081F800E0FFF752FE0C4B187804431C7062
:101530000020BDE8F0870220BDE8F0873846BDE80E
:10154000F087B0F5807F05D0CDF820A0BDE8F0474A
:1015500003F0DABD0320BDE8F08700BF6902002078
:101560006802002040420F006C0200207C02002034
:10157000A0F5007238B595B2032D0C4611D80123A1
:1015800013FA02F20E4B18781978D2B202420CBF4D
:1015900000200120012C0CBF0A4321EA02021A702C
:1015A00038BDB0F5807F04D0064A936923B19847CF
:1015B00038BD6FF0030038BD6FF0020038BD00BFCA
:1015C0006902002094D80208A0F5007291B20329A4
:1015D00008B509D80B4901200B7810FA02F2134222
:1015E0000CBF0020012008BDB0F5807F04D0064A62
:1015F000D36923B1984708BD6FF0030008BD6FF0B1
:10160000020008BD6902002094D80208A0F500720B
:1016100038B595B2032D0C4610D8012313FA02F207
:101620000D4B1978D2B20A420CBF0020012094B1B0
:1016300093F800C02CEA0201197038BDB0F5807F24
:1016400004D0064A136A23B1984738BD6FF00300EF
:1016500038BD6FF0020038BD6802002094D802083F
:101660000249034AB0FBF1F31360704740420F0098
:10167000480200200249034AB1FBF0F313607047AF
:1016800040420F004C02002005490648D1E90023E2
:101690000068121843F10003C1E90023704700BF3E
:1016A000500200204C0200202DE9F843194C03F0B1
:1016B000CBFDD4E9002303E003F0C6FD32463B46F0
:1016C000D4E9006786EA020887EA030958EA0903B1
:1016D000F2D1114B1A68002325F0CEFE0F4B3418BF
:1016E00047EB01056FF00102A24273EB05010CD23A
:1016F0002046294625F0C0FE14461D4603F0ACFDE9
:101700000448C0E9008903F0AFFD20462946BDE842
:10171000F88300BF5002002048020020FFFF0F00A6
:101720002DE9F04114460F4A52F820700E01BD1900
:101730004FF001082B731B19D9B2B95508FA01F102
:10174000A86817F0ADFEA86048B9B855E880688071
:10175000A880D4F1010038BF0020BDE8F0814046E8
:10176000BDE8F081DCD40208044A52F8200000EB06
:1017700001130022DA805A809A807047DCD4020874
:101780002DE9F0470B460D01354951F820607119DC
:1017900004464888D1F808901FFA80F8705D002848
:1017A0005CD0CF881FFA87FA0F7B4FF0010CC01B6B
:1017B0000CFA00F0824509DD2A490A682A49D068F6
:1017C000224616F0FFFB0020BDE8F0870CFA07F474
:1017D00004F00707E01D7C1E09EB0803C010062C6F
:1017E00005D8DFE804F0201C1814100C080012F8CB
:1017F000017B03F8017B12F801CB03F801CB12F84F
:10180000014B03F8014B12F8017B03F8017B12F83E
:1018100001CB03F801CB12F8014B03F8014B12F88E
:10182000017B03F8017B92F800C00138002883F89F
:1018300000C002DD01330132D9E7735D0F7B4C88B4
:10184000012010FA03F210FA07F3013A13FA84FCAC
:1018500002EA0C074F80CA881318CB80BDE8F087D6
:10186000DCD4020828000020A8D40208044A090198
:1018700052F82030585C003018BF0120704700BF7C
:10188000DCD40208074A090152F82030585C5A1883
:1018900030B192F80CC00121CCEB000011FA00F03D
:1018A000704700BFDCD40208034B53F8202002EB42
:1018B0000113D88880B27047DCD40208F8B50D0156
:1018C000314951F820607419705DA388A1689BB2FA
:1018D000002852D0B4F806C01FFA8CF000284FD070
:1018E000207B012717FA00F000F00707CB18C11D75
:1018F000781EC910062805D8DFE800F0201C18144F
:10190000100C080013F8017B02F8017B13F801EBBF
:1019100002F801EB13F801CB02F801CB13F8010B2D
:1019200002F8010B13F8017B02F8017B13F801EBBD
:1019300002F801EB13F801CB02F801CB187801395A
:101940000029107002DD01320133DBE7002004F0D2
:1019500039FBE388591EE18004F034FB725D237B80
:10196000A188012010FA02F710FA03F2013F12FADF
:1019700081F307EA0302A280F8BD4FF0FF30F8BD03
:101980004FF0FF30F8BD00BFDCD40208024B1C2230
:1019900002FB0030704700BF9407002000487047EA
:1019A0001C0700202DE9F041FFF7F8FF90F87420A4
:1019B00050F82210426E836ED1F804809A42044699
:1019C00007D190F860E00EF0020C5FFA8CF000286E
:1019D00050D0002004F0F6FA0026074684F8746020
:1019E0003546616E31FA05F3DB071AD52846FFF755
:1019F000CDFF94F8741044F8210094F87430017805
:101A0000203304EB4302436882616FF304110170D9
:101A1000434508BF94F8746094F87400421C84F83D
:101A200074200135102DDCD194F8745084F8755071
:101A300006E094F87420501C44F8225084F8740096
:101A400094F874C0BCF10F0F4FF00005F1D984F881
:101A5000745003F039FD616EA16684F8746094F8E7
:101A60006030384665F3410384F86030BDE8F041EA
:101A700004F0A8BABDE8F0812DE9F0478A46044693
:101A8000FFF784FF05460020FFF788FF064604F0B5
:101A9000ACFA002004F0A9FA4FF001098046214673
:101AA0004846FFF7EFFE09FA0AF787420BD04B468C
:101AB000484621465246FFF733FE4845034611D1BA
:101AC0002146FFF751FEAF82297841F001002870CE
:101AD000736E012515FA04F41C437466404604F045
:101AE00071FA2B461846BDE8F08770B50546FFF73A
:101AF0004DFF06460020FFF751FF0123446E13FA05
:101B000005F124EA0102426696F800C075606FF3A1
:101B1000000C86F800C0347844F00201317030784F
:101B200000246FF3C3003070B4823278347264F3EF
:101B300082023270294674811846F4601A46FFF713
:101B4000EFFD28462146BDE8704003F0D5BD37B50E
:101B50000546FFF71BFFB0F80AC0037A01211FFA00
:101B60008CF211FA03F39A42044606D10023438112
:101B700090F800E04EF008020270E268B4F80AE063
:101B800023691FFA8EFC33F81C00131AE3602278D5
:101B900002F01001C8B240B1A2691088ADF8060089
:101BA00021786FF30411217005E0012029460DF121
:101BB0000602FFF783FE62892369BDF806001FFA5B
:101BC00082FC23F81C00E368618922691FFA81FE08
:101BD00032F81EC00CEB0300E06061894B1C63818E
:101BE0003EBD10B5FFF7D2FE00234381C3600278EB
:101BF00063F3C302037A0270002B52D0012414FA5B
:101C000003F303F00701DA1D4C1ED210062C05D891
:101C1000DFE804F03C342C241C140C000023016980
:101C2000002421F81340591C8BB200E00023016905
:101C3000002421F8134001339BB200E00023016926
:101C4000002421F8134001339BB200E00023016916
:101C5000002421F8134001339BB200E00023016906
:101C6000002421F8134001339BB200E000230169F6
:101C7000002421F8134001339BB200E000230169E6
:101C8000002421F8134001339BB200E000230169D6
:101C9000013A0024002A21F8134002DD01339BB2EF
:101CA000BDE710BD70B506460D46FFF76FFE037821
:101CB000DA07044602D5304603F0DAFB207AA84260
:101CC0000FD0022125722069A94017F0E9FB20619D
:101CD00038B9E0602278207260F3C302227060811C
:101CE0003DB93046FFF77DFF01203146FFF73CFD4F
:101CF000012070BD38B50546FFF748FE2946044669
:101D00000120FFF7D1FD80B210B92078C0F3001098
:101D100038BD37B50546FFF739FE0023044628468F
:101D2000ADF80630FFF7E6FF002834D0227A23789A
:101D3000AAB103F00801C8B268B32846FFF707FF4D
:101D4000B4F814C01FFA8CF212B1A08A431EA38209
:101D5000E268237A32FA03F1ADF806101BE003F0D3
:101D60001001C8B258B1A369B3F800C0ADF806C0FD
:101D700094F800E062F3041E84F800E005E001201E
:101D800029460DF10602FFF799FDA08A82B212B131
:101D9000A38A591EA182BDF806003EBD70B50E464D
:101DA0000446FFF7F3FD05462046FFF7A3FFB042C8
:101DB0000CD2297801F00200C3B23BB12A78D107D6
:101DC00004D52046FFF796FFB042F7D32046BDE882
:101DD0007040FFF78FBF00000A4B5A6882B95A6102
:101DE0001A684FF0FF31D96019612AB906484FF0DF
:101DF00058311960C0F8B4214FF480725A609A606B
:101E000000207047A8050020E0030020064B1A6858
:101E1000904203D359685218904202D39B68002B1A
:101E2000F5D11846704700BF9805002000F1080260
:101E300012F0070302D0534203F00703C018C91A77
:101E4000064B41F001029861D96042604118044894
:101E500028224A600269DA61704700BFE00300206F
:101E6000A8050020F4282DE9F84FAC4C00F282813F
:101E70000A2884BF00F10B0525F007052768A74B4A
:101E800098BF1025EA0837FA02F188071AD001F046
:101E9000010080F001018A1803F1240505EBC20559
:101EA000A8688468A54205D10121914027EA01076D
:101EB0001F6005E01B699C42C0F08E86AC60E56047
:101EC000D20041E39E68B54240F22B83002974D0D2
:101ED0004FF0010808FA02FC0CFA08F0464211FA29
:101EE00002F246EA000C0CEA0206714201EA060020
:101EF000411E0A0B02F0100031FA00F2560906F0FA
:101F0000080101EB000C32FA01F0860806F0040229
:101F1000D04020FA08F10CEB020601F0020230FA80
:101F200002F121FA08FCB6180CEA080031FA00F2B6
:101F300006EB000C944403F1240101EBCC06B068DD
:101F40008268964205D108FA0CF827EA08071F6054
:101F500005E01B699A42C0F03F86B260D6604FEA46
:101F6000CC077B1B45F00306451943F00102466090
:101F70006A60EB50A668694FD6B14FEAD60C4FF0B5
:101F800001083E687A6901EBCC0108FA0CFC1CEAF6
:101F9000060F04D14CEA06063E600E4604E08E6849
:101FA0003F69BE42C0F018868A60F2609660D160D8
:101FB000A36065610830BDE8F88F5A68002A00F018
:101FC000B082504200EA02077A1E160B06F010009B
:101FD00032FA00F7790901F0080637FA06F18A08A3
:101FE00002F0040731FA07F206EB000C560806F07F
:101FF000020032FA00F1BC444F0807F001020CEB7A
:102000000006B71831FA02F03A1803EB8201D1F852
:102010002C114B6823F00300421B08460AE05F685E
:1020200027F00301C5EB010C94452CBF94461846DC
:10203000624619460B69002BF1D14B69002BEED19A
:10204000D4F810C06045C0F0C7854719B84280F089
:10205000C385C3688169834206D086686645C0F03F
:10206000BB85F3609E601EE0436913B100F1140666
:1020700007E00369BBB100F1100602E003F11406AA
:102080003368D3F81480B8F1000FF7D1D3F810807B
:10209000B8F1000F02D003F11006F1E76645C0F079
:1020A0009B85C6F80080002934D0D0F81C801B4ED8
:1020B00008F14A0C04EB8C0CDCF8048040450BD191
:1020C000CCF8043093B9C369012111FA03F37168A4
:1020D00021EA030373601DE03669B142C0F07C85DC
:1020E0000E6986420CBF0B614B619BB12669B342FE
:1020F000C0F072859961016921B1B142C0F06C856F
:1021000019618B61416929B12669B142C0F06485CA
:1021100059618B610F2A03D8521915E2E0030020A0
:1021200042F0010345F0030545607B60BA50A668A4
:10213000AA4BE6B14FEAD60C03F124051E68596993
:102140004FF0010805EBCC0508FA0CFC1CEA060F61
:1021500004D14CEA06061E602E4604E0AE681B69F8
:102160009E42C0F03985A960F1608E60CD60A260AA
:1021700067611FE710F1410F00F2D181666800F13D
:102180000B0222F00705002E00F0CB816A42290ADB
:1021900027D0B1F5803F23D2A1F580774FEA1743CE
:1021A00003F0080C01FA0CF1A1F58050070C07F0C0
:1021B0000407B940A1F58043180C00F002036744FE
:1021C00011FA03F007EB030CCCEBD03000F1150152
:1021D00035FA01F303F001010E3001EB400100E09C
:1021E0001F2104EB8100D0F82C31002B2ED01F29A9
:1021F0001ABF4FEA5108C8F119084FF000084FF014
:10220000000C05FA08F8174660465A6822F00302E7
:10221000521BBA4202D292B1174618464FEAD879F9
:102220005A6909F1040953F8293012B19A4201D1CF
:1022300002E062462BB194464FEA4808E5E71846AB
:1022400001E013463A46B3BB002842D16FF00103C8
:1022500013FA01F111EA06032BD0594201EA0300F7
:10226000461E330B03F0100036FA00F3590901F053
:10227000080633FA06F106EB000C880800F00403A8
:102280009C4431FA03F35E0806F002000CEB0006F2
:1022900033FA00F0410801F0010306EB030C30FAB9
:1022A00003F10CEB010004EB80060020D6F82C3182
:1022B0000FE018460DE0596821F00306711B9142AA
:1022C00028BF11461A6938BF184602B95A69134621
:1022D0000A46002BEFD1002800F02381A368C5EB4C
:1022E000030C624580F01D813C4ED6F810C060455D
:1022F000C0F072844319984280F06E84C168866988
:10230000814206D087686745C0F06684F9608F60B7
:102310001EE0416911B100F1140707E00169B9B18C
:1023200000F1100702E001F114073968D1F81480B8
:10233000B8F1000FF7D1D1F81080B8F1000F02D03A
:1023400001F11007F1E76745C0F04684C7F8008047
:10235000002E34D0D0F81C80204F08F14A0C04EB3A
:102360008C0CDCF8048040450BD1CCF8041091B9FA
:10237000C169012616FA01F17E6826EA0101796039
:102380001DE03F69BE42C0F02784376987420CBF19
:102390003161716199B12769B942C0F01D848E61C4
:1023A000066926B1BE42C0F017840E61B16146696C
:1023B0002EB12769BE42C0F00F844E61B1610F2A71
:1023C0000ED802EB050C4CF00302426000EB0C024D
:1023D000516841F0010353609DE000BFE00300201D
:1023E000D10845F0030742F001061F2947605E60EF
:1023F0009A5019D8954E276806F124024FF0010C27
:1024000002EBC1020CFA01F1394203D139433160C8
:10241000114604E091683669B142C0F0DD839360F3
:10242000CB609960DA6076E0160A29D0B6F5803F75
:1024300025D2A6F580714FEA114707F0080906FA80
:1024400009F8A8F580564FEA164101F0040108FA90
:1024500001F6A6F580473F0C07F0020709EB010CD7
:10246000BE400CEB0708C8EBD63707F1150132FA6E
:1024700001F606F001090E3709EB470600E01F26BA
:102480004FF0010CD4F80480DE610CFA06F9002745
:1024900019EA080F5F611F616C4906F14A0C07D108
:1024A00049EA08024A6001EB8C0141F8043F20E050
:1024B00001EB8C011F2E496802D07608C6F119077E
:1024C00012FA07F600E061464F6827F003079742CB
:1024D00013D0F70F043701EB870851F827C07600B7
:1024E000BCF1000FEFD122699045C0F0758341F82F
:1024F00027309961DB609B600DE026698A68B142F4
:10250000C0F06A83B242C0F06783D3608B60D96049
:1025100000219A609961083040F0788301E04FF023
:10252000FF35A268494E954217D8531B0F2B70698F
:1025300007D9421943F001017261B3605160D35071
:102540005AE30023B360736142F0030182184160D3
:10255000536843F0010151602CE5F268954208D2BE
:10256000B069511B431941F00102F160B3615A6037
:1025700042E3FFF731FCD6F8B401DFF8D89010F051
:10258000040F72D1B06918B1FFF740FC824620BB3E
:10259000002003F0FBFE421C064660D0D9F808304C
:1025A0005F4203F1290CD9F804305A1E0CEB050EDA
:1025B00010420EEA070705D0391AC2185F4202EA34
:1025C00007000F18224B9F4249D8384603F0DEFE21
:1025D000B042804640F01C836BE0D9F80830F268C6
:1025E00003F12901C2EB010E5F420EEB0500184911
:1025F00007408F4233D8384603F0C8FE9AE80C00F3
:1026000002EB030C6045804640F00283013050D15C
:1026100025E00F4B9F424CD805F12906B74248D21E
:10262000D9F8082002F1290C0CEB050E5142C7EB3A
:102630000E0000EA01069E42C7F1000A39D8304672
:1026400003F0A4FE013007D0BF1932E0E003002000
:10265000FEFFFF7FA8050020504603F097FED4F848
:10266000B40140F00403C4F8B431D9F8081001F102
:10267000290E4B420EEB05028D4902EA0300884207
:1026800000F2BF8203F082FE8046002003F07EFE4F
:10269000B8F1FF3F00F0B582431C00F0B2828045E4
:1026A00080F0AF82C8EB000705F12800874240F2B6
:1026B000A882D4F8AC31D4F8B061FA18B24288BF1D
:1026C0007C4EC4F8AC2188BFC6F8B021A669794B0E
:1026D000D6B9D9F80010C3F81080C3F8B881C3F890
:1026E000BC71C3F8C461196203F1240203F592734B
:1026F000D260926008329A42FAD14046A7F128018E
:1027000015E09B681BB915E003F5DC739B461A685E
:10271000596802EB010CE045F3D17EE2964209D301
:10272000464507D2C8195860E268A069B918FFF792
:102730007DFB55E2236998453CBF5E4BC3F8108092
:102740005D4B03E09B68002B00F07581196808EB76
:10275000070E7145F6D165E25E68C3F80080F7198F
:102760005F6008F1080313F0070002D05A4202F03C
:10277000070001F1080313F00702404402D05B4256
:1027800003F007028A18C0EB020C4319C5EB0C06D4
:1027900045F003054560A169464D8A4207D1EA68C4
:1027A000AB61B618EE6046F001065E6002E469694E
:1027B0008A4209D1A9686B61761846F00102AE60C1
:1027C0005A609E51FFF7F6BB516811F0020F40F0BE
:1027D000968021F0030C4FEADC08B8F11F0F1ED8D9
:1027E0009768D1688F4207D1012707FA08F82F6848
:1027F00027EA0801296080E005F1240909EBC808EF
:10280000474503D02D69AF42C0F0E681414503D072
:102810002569A942C0F0E081F9608F606DE0D16860
:10282000976991420AD0D2F808802D69A845C0F076
:10283000D381C8F80C10C1F8088020E0516911B1AB
:1028400002F1140507E01169C9B102F1100502E0B7
:1028500001F114052968D1F81490B9F1000FF7D1EE
:10286000D1F81080B8F1000F02D001F11005F1E7A6
:10287000D4F810904D45C0F0AF81C5F80080002F0E
:102880003BD0D2F81CE00B4D0EF14A0804EB88084F
:10289000D8F804904A4511D1C8F80410C1B9D169DB
:1028A000012717FA01F16F6827EA0101696024E046
:1028B000FEFFFF7FE0030020980500202D69AF4256
:1028C000C0F08A813D6995420CBF39617961A1B13F
:1028D000D4F810804145C0F07F818F61156925B122
:1028E0004545C0F079810D61A96155692DB1276910
:1028F000BD42C0F071814D61A96162446644556872
:1029000025F001015160F10846F001021F295A60CB
:102910009E5119D8B14D2468012605F1240C0CEB09
:10292000C10216FA01F1214203D121432960114667
:1029300004E091682C69A142C0F04E819360CB60A5
:102940009960DA60FFF736BB310A27D0B1F5803FD6
:1029500023D2A1F580774FEA174202F0080801FA66
:1029600008F1A1F580552F0C07F00407B940A1F537
:102970008042150C05F0020208EB070C91400CEBAD
:10298000020ECEEBD13707F1150536FA05F202F04B
:1029900001080E3708EB470100E01F214FF0010747
:1029A000D4F804C0D96107FA01F8002518EA0C0F21
:1029B0005D611D61894A01F14A0707D148EA0C01AE
:1029C000516002EB870242F8043F1FE002EB8702EE
:1029D0001F29526802D04D08C5F1190516FA05F1F4
:1029E00000E03A46556825F00305B54213D0CF0FF5
:1029F0003D1D02EB850C52F825704900002FF0D1E7
:102A000021698C45C0F0E88042F825309A61DB608E
:102A10009B60FFF7CFBA24699168A242C0F0DC80C6
:102A2000A142C0F0D980CB609360DA600022996047
:102A30009A61FFF7BFBA3046FFF7E8F990E80C005B
:102A400002EB030AAAF1270212F007001CBF504252
:102A500000F00700AAF12F09814406F11001894511
:102A600038BFB1464046A7F12801FFF7DFF91B2325
:102A7000C9F804309BE80F0009F1080C8CE80F003E
:102A80000020C4F8B881C4F8BC71C4F8C401C4F80B
:102A9000C0C109F11803072043F8040F191D8A4526
:102AA000F9D8B14500F09C80C6EB0902B31842F09A
:102AB0000107586820F00101D0081F28596077608D
:102AC000B25017D845492268012701F1240E0EEBB8
:102AD000C00317FA00F0104203D102430A601A46FD
:102AE00003E09A6809698A4276D39E60D660B26034
:102AF000F36075E0110A27D0B1F5803F23D2A1F52C
:102B000080774FEA174303F0080801FA08F1A1F5AE
:102B10008050070C07F00407B940A1F58043180C5A
:102B200000F0020308EB070E99400EEB030CCCEB10
:102B3000D13707F1150032FA00F303F001080E3720
:102B400008EB470100E01F214FF00107D4F804C053
:102B5000F16107FA01F8002018EA0C0F706130618A
:102B60001E4B01F14A0707D148EA0C025A6003EBF9
:102B7000870343F8046F1EE003EB87031F295B689C
:102B800002D04908C1F1190012FA00F100E03B46F9
:102B9000586820F0030C944511D0CF0F381D03EB7B
:102BA000800C53F820704900002FF0D12269944521
:102BB00012D343F82060B361F660B66010E021697B
:102BC0009A688B4208D38A4206D3D6609E60F3602F
:102BD0000023B260B36103E014F098FDE00300202D
:102BE000E168134B8D420CD29869491B4219D96098
:102BF00041F001019A61516045F003054560FFF71E
:102C0000D9B914F0C9FD0C2303600020BDE8F88F8A
:102C1000B8F1FF3F7FF4FDAC21E5D86800077FF5F0
:102C20007DAD87E5DA6812073FF505AF94E500BF93
:102C3000E00300202DE9F041002800F00582914DCD
:102C40002E69A0F10803B3422C46C0F0FB8150F876
:102C5000047CBA0740F1F68127F0030217F0010F58
:102C600003EB020140F0958050F8087CDB1BB34277
:102C7000C0F0E881686983423A447ED0FF081F2F84
:102C80001CD89D68D868854207D12568012616FAA8
:102C900007F725EA070727607BE004F1240C0CEB1B
:102CA000C707BD4202D0B542C0F0CC81B84202D0C5
:102CB000B042C0F0C781E86085606AE0DF689D6966
:102CC0009F4207D09868B042C0F0BC81C760B8602E
:102CD00038461DE0586910B103F1140706E0386961
:102CE000B0B1103702E000F114073868D0F814C012
:102CF000BCF1000FF7D1D0F810C0BCF1000F02D02A
:102D000000F11007F1E7B742C0F09C81C7F800C09E
:102D1000002D3ED0DF695B4E4A3704EB8707D7F8BA
:102D200004C063450AD1786090B9D869012515FAC5
:102D300000F0756825EA000070602AE03669B54247
:102D4000C0F080812E699E420CBF2861686100B38B
:102D50002669B042C0F0768185611D6925B1B54212
:102D6000C0F070810561A8615D6995B12669B542C1
:102D7000C0F068814561A8610BE0486800F0030C71
:102D8000BCF1030F05D1AA60486820F0010048603B
:102D900024E08B4280F056814868C50740F152819B
:102DA00010F0020640F0BB80A769364DB9420ED143
:102DB000E968AB61501840F00101E86059606A6948
:102DC000934240F041816E61AE60BDE8F0816E6972
:102DD000B14209D1A8686B611218AA6042F00101E2
:102DE00059609A50BDE8F08120F00307F8081F28C9
:102DF0001ED88E68C9688E4207D1012111FA00F0F1
:102E0000296821EA000028607DE005F1240C0CEB24
:102E1000C000864203D02D69AE42C0F013818142CA
:102E200003D020698142C0F00D81F1608E606AE0BC
:102E3000C8688E6988420AD0D1F808C02D69AC45AF
:102E4000C0F00081CCF80C00C0F808C023E048694D
:102E500010B101F1140507E00869E0B101F11005B6
:102E600002E000F114052868D0F81480B8F1000FD2
:102E7000F7D1D0F810C0BCF1000F05D000F110055B
:102E8000F1E700BFE0030020D4F810804545C0F012
:102E9000D980C5F800C0002E35D0D1F81C806B4D0C
:102EA00008F14A0C04EB8C0CDCF8048041450BD192
:102EB000CCF8040090B9C969012010FA01F16868E2
:102EC00020EA010169601EE02D69AE42C0F0BA80BF
:102ED00035698D420CBF30617061A0B1D4F810C06B
:102EE0006045C0F0AF8086610D6925B16545C0F0D1
:102EF000A9800561A861496929B12569A942C0F085
:102F0000A18041618861D21942F0010058609A5055
:102F100061698B420AD14D4B9A60BDE8F08120F087
:102F2000010042F0010548605D609A50D1081F29F8
:102F300018D846482468012500F1240202EBC1029A
:102F400015FA01F1214203D121430160114603E04A
:102F500091680069814275D39360CB609960DA60B3
:102F6000BDE8F081100A24D0B0F5803F20D2A0F552
:102F70008077390C01F008018840A0F580552E0CAF
:102F800006F00406B040A0F580473D0C05F00205B0
:102F90008F19A84007EB050CCCEBD03606F11501D4
:102FA00032FA01F505F001070E3607EB460000E0A6
:102FB0001F204FF001066768D86106FA00FC002563
:102FC0001CEA070F5D611D61204900F14A0607D127
:102FD0004CEA07074F6001EB860141F8043F1EE011
:102FE00001EB86011F28496802D04008C0F119058D
:102FF00012FA05F000E031464D6825F003059542D0
:1030000012D0C70F3D1D01EB850751F82560400028
:10301000002EF0D12269974214D341F825309961EE
:10302000DB609B60BDE8F08120698A68814209D33A
:10303000824207D3D3608B60D96000219A60996186
:10304000BDE8F08114F062FBBDE8F081E0030020F0
:1030500038B568B141EA0004220C130400FB01F505
:103060003BB1B5FBF0F0884218BF4FF0FF3500E0F0
:1030700005462846FEF7F6FE044618B100212A460A
:1030800016F0AEF8204638BDF8B50E46044620B915
:103090000846BDE8F840FEF7E5BE19B9FFF7CAFDDE
:1030A00035466DE0413105D914F076FB0C23036001
:1030B000002565E0334D50F8041CA0F10802286992
:1030C0008242AC4643D38D0741D521F00307D51981
:1030D000AA423CD26B68D80739D50A2E86BF06F1C2
:1030E0000B0323F0070310239F4215D3FD1A0F2D66
:1030F0002FD901F00101D01841F0020C4CEA030372
:1031000045F00301451944F8043C41606B6843F005
:103110000101696008301DE0DCF818C019486545F8
:103120001DD1C5687D199D4219D901F0010102EB3D
:10313000030CED1A41F00201194345F0010344F874
:10314000041CCCF80430C0F818C0C56001E014F0CD
:10315000DDFA00201AB190B1FFF76CFD0FE03046A8
:10316000FEF780FE054658B13A1F2146964238BF09
:10317000324615F05FFF2046FFF75CFD00E0254674
:103180002846F8BDE003002003060BD44209064B95
:10319000012100F01F0011FA00F053F8221008433B
:1031A00043F82200704700BFD405002002060CD46B
:1031B0004209064B012100F01F0011FA00F053F8FC
:1031C000221021EA000043F822007047D4050020B5
:1031D00001060CD400F01F030649400901229A4061
:1031E00051F820301A420CBF002001207047002007
:1031F000704700BFD405002038B504460138C3B27B
:10320000032B0D4628D80AF001F830B32046FFF70B
:10321000DFFF10B3114B124A187812F8201021B1B9
:10322000104816F0B5F8002038BD93F800E093F888
:1032300000C0187802F82E4002EB8C02411C558029
:1032400001F01F021A7009F0E1FF0749082202236A
:1032500005F084F8012038BD002038BD6406002048
:10326000E4050020E4D402086D3200082DE9F0479F
:10327000284FDFF8ACA03E783A7839780AEB86041C
:1032800005461AF82660B4F80290481C00F01F03A7
:103290003B70002430460AF82240FFF799FFB846F9
:1032A000574620B328461C491C4A03F080FD284697
:1032B0004FF0FF31324603F07AFD28464FF0FF31E0
:1032C00003F030FB48B12846494603F069FC284624
:1032D0000121224603F0E2FE04E028464FF0FF31D0
:1032E00003F087FA28464FF0FF3103F082FA0020FE
:1032F00002F068FE98F800C017F82C10044621B9B7
:1033000028460A460B4605F029F82046BDE8F04756
:1033100002F058BED0050020F0D8FFFFF9310008B8
:10332000E4050020034B00221A605A609A60DA60BC
:10333000704700BFD405002008B5FFF7F3FF05482C
:10334000054B00210170054819708022BDE8084036
:1033500015F046BF64060020D0050020E4050020DB
:10336000431EDBB2032B05D8034A52F8230042F870
:103370002310704700207047C00500200138C3B2F9
:10338000032B9ABF024B53F820000020704700BF68
:10339000C00500202DE9F04F394B53F8206085B06F
:1033A00004460F469346002E63D0DFF8E8A05AF893
:1033B0002010D146A9B94FEA86084046019115F080
:1033C000B7FD4AF824000546019938B92D4801682F
:1033D0002D48C96814F04CFE28464DE0424615F0D1
:1033E000FFFE06F1FF3A4FEA8A02039238460A21AD
:1033F00016F0B8FD054618B9384617F0BDF93D1866
:10340000BD4202D8BBF1010F2CD13846E91B17F0A1
:10341000D7FA804638B91B491C480B68D96814F0A4
:1034200027FE404628E01A4F57F82400B04210D13A
:1034300059F82430194651F8040B0293019115F004
:103440007FFD029A01991046039A15F06BFE47F82A
:1034500024A057F8243059F82420581C42F823801F
:1034600047F82400297831B168786F1C0028BDD155
:1034700001E0304600E0012005B0BDE8F08F00BF5C
:10348000C0D502082800002021D5020866D5020810
:103490006806002070060020F0B585B01F4606467D
:1034A0000D46144617F068F9C71902E00135013CD2
:1034B000013F4F2FFAD800E0013C2318502BFBD8D6
:1034C000184A1021684616F0E5FB684617F054F9D3
:1034D00001466846FDF7B0FB304617F04DF901464E
:1034E0003046FDF7A9FB28462146FDF7A5FB102134
:1034F0000D4A684616F0CEFB684617F03DF90146C6
:103500006846FDF799FB1021084A3B46684616F0CD
:10351000C1FB684617F030F901466846FDF78CFBA1
:1035200005B0F0BDA9D50208AED50208B3D5020892
:103530002DE9F8430E4B0F4F53F82050044699469F
:103540008DB1A846002604E058F8040B15F0F8FCED
:10355000013657F824008642F6DB284615F0F0FCC9
:10356000002149F82410002247F82420BDE8F88300
:1035700070060020680600202DE9F04F0E46A8498D
:1035800087B01F4651F8203005928246ABB9A54C52
:1035900025683846A96814F06BFD2068806814F02F
:1035A000B7FA226805995268304614F0AFFB00283C
:1035B0000CBF4FF0FF35002540E1384617F0DCF82E
:1035C000059B04904FF000085C1E974986F8008028
:1035D000012250460394FFF7DDFE38460499FDF7BB
:1035E0002BFB4546444603E04FF0000800E0D84678
:1035F0000120FDF7C5FBA0F580718146132900F27B
:10360000C78001A252F821F0D5360008D53600084F
:10361000B7360008CB360008673700087B3700084C
:103620009137000891370008593600089137000893
:103630008D36000891370008593600089137000888
:103640009137000859360008F1350008773700082F
:103650008B37000847370008744A754952F82A002A
:10366000431E51F82A0042F82A3050F8230015F082
:1036700067FC40F20F12914500F0C280B9F5867FD9
:1036800000F0DA806A1C40F0BD80D7E0002CAFD09B
:10369000002DADD004F1FF392A1B3119013D06EB95
:1036A000090015F03FFD002373554C46384631465E
:1036B0002A464B4606E0002C9AD0013C384631465B
:1036C0002A462346FFF7E8FE92E7AC4200F08180ED
:1036D0000134F3E7554951F82A30012B88DD54486D
:1036E00003F1FF3B50F82A10C8EB0B0251F82200FF
:1036F00001910092029315F023FC304616F014FE5F
:10370000009B0199B9F5807F14BF4FF0FF32012271
:10371000904441F82300B8F1FF3F029B3FF464AFAF
:103720009845BFF664AFC8EB0B0B039A51F82B100A
:10373000304617F00BF9039D00247455304617F0FE
:103740001BF804463FE0002D3FF452AFAC42BFF4FB
:103750004FAF013D621CB11830192A1B15F0E2FC75
:1037600000237355AAE7384631462A460023FFF75F
:1037700093FE00243CE700253570384631462A4642
:103780002B46FFF789FE2C4632E7002131551AE01F
:1037900028490A68131893F801C01CF0970F3FF4EA
:1037A00027AF039B9D42BFF423AFA54213D1049AD8
:1037B0006C1CC0B27055A51800214F2D315502D890
:1037C000FDF720FA05E03846314622462346FFF74A
:1037D00063FE25460CE704F1010B2A1B3119013564
:1037E00006EB0B0015F09EFC002006F80490314615
:1037F00070552A4638465B46FFF74EFE5C46F7E6B4
:103800006FF001050A2015F075FDAB1C3FF4D5AE35
:10381000002D13DD735D8BB1002272550EE000BFE9
:10382000C0D5020828000020F0FC0208680600202D
:1038300070060020240000204FF0FF35284607B016
:10384000BDE8F08F0022FFF7A5BD00001B4A52F82B
:1038500020302DE9F04104461BB3194F57F82030B2
:103860001BB3184A52F820009046F0B1084616499A
:1038700014F08EFB0646E0B1002508E057F824302E
:10388000124953F82520304614F09CFB013558F8B6
:1038900024108D42F2DB304613F0EEFF0020BDE82D
:1038A000F0816FF00100BDE8F0816FF00200BDE82B
:1038B000F0814FF0FF30BDE8F08100BFC0D50208B5
:1038C0007006002068060020B9D1020854D302080F
:1038D00013B5044621460020FDF7C8FF58B94FF63E
:1038E000FF739C420ED106E002AA214602F8010DA8
:1038F0000020FDF745FF00220023204601F028FBB1
:10390000411CF1D1024803680BB1204698471CBD09
:103910007806002073B506463146002014461D4641
:10392000FDF7A4FFB0B154EA050308D100203146E9
:103930000DF10702FDF7C2FF431C08D114E000207F
:1039400031460DF10702FDF7B9FF0130F7D09DF8C0
:10395000070009E0052E05D8304622462B4601F027
:10396000F7FA01E04FF0FF307CBD05288CBF002046
:10397000012070472DE9F74F14461D46884654EA4A
:103980000501814609D0194B4FF0FF3284EA020647
:1039900085EA030756EA070104D103B0BDE8F04FFA
:1039A000FFF7B8BF4046002100220023FDF718FDB5
:1039B00082468B46002200234846FFF7ABFF061ED7
:1039C00010DA0022002301214046FDF709FD5B4685
:1039D000CDE9000152464046FDF7C0FCA04271EB24
:1039E0000503E7D3304603B0BDE8F08FFFFF0F00BB
:1039F000052801D801F098BA704700004FF6FF7310
:103A0000984270B504460D463DD001BBCF283CD846
:103A100086B231460420FDF77DFB012804D1042045
:103A200031462A46FDF758FB0420FFF7A7FC194949
:103A3000814204D1184A04201168FFF791FC00204C
:103A4000214602460346FDF76BFE012070BD0020B3
:103A50002146EAB20346FDF763FEC8B1CF2C16D863
:103A60000420FFF78BFC0B49814204D00420FFF7B0
:103A700077FC094B18600420A1B20122FDF72CFB52
:103A8000C043C00F70BD002070BD084670BD01204E
:103A900070BD00BFD138000878060020CF2801D8BB
:103AA00001F076BA002070470020704740F0BE61F8
:103AB000024B41F42020D860704700BF00ED00E0C9
:103AC00010B5C3782BB3184AD4684278E14301F4A7
:103AD000E0631B0AC3F1040C5FFA8CF412FA04F1E0
:103AE0000F2454FA03F2847890F800C0C9B202EAB5
:103AF000040343EA01020D4B0CEB0301120181F8B0
:103B000000230378012203F01F00590912FA00F381
:103B100006E002780123510902F01F0083402031A2
:103B2000024840F8213010BD00ED00E000E100E067
:103B300021F0604C2CF07F02024B42EA00019960B8
:103B4000704700BF00ED00E008B501214FF4807020
:103B500000F034FB4FF480700021BDE8084000F015
:103B60002DBB000030B543680A6823F0407424F48C
:103B700080750B7945EA020C4CEA03244460CD6859
:103B80000A69846845EA02038D680A4A43EA050C1B
:103B900004EA02034A794CEA030C4CEA42038360CC
:103BA000097DC26A4B1E22F47002D9B242EA015367
:103BB000C36230BDFDF7FFC0002101230160017128
:103BC00041718160C16001610375704710B5094A98
:103BD000094C536803EA040C90E8120021438468FE
:103BE000C06841EA040343EA000141EA0C03536060
:103BF00010BD00BF00230140E030FCFF836811B11D
:103C000043F0010301E023F00103836070470929B9
:103C100070B54FEA41040BD964181E3CC6680725ED
:103C2000A54026EA0505A34045EA0304C4600AE06E
:103C3000066964180725A54026EA050513FA04F469
:103C400045EA04030361062A0CD8013A02EB82021A
:103C5000446B1F23934024EA030C91404CEA010279
:103C6000426370BD0C2A4FEA82030CD89A18046B89
:103C7000233A1F23934024EA030C11FA02F24CEA80
:103C80000201016370BD9A18C46A413A1F23934030
:103C900024EA030C11FA02F24CEA0201C16270BD7F
:103CA000836811B143F4807301E023F4807383606F
:103CB0007047836811B143F4007301E023F400738B
:103CC00083607047016821F0010303600021212314
:103CD000016041608160C160016143612C4B984289
:103CE0001CD02C4B984220D02B4B984225D02B4BEC
:103CF00098422AD02A4B98422FD02A4B984233D050
:103D0000294B984237D0294B984204D14FF03D526D
:103D100043F8AC2C7047264B984203D13D2043F822
:103D2000080C7047234B984204D14FF4746143F858
:103D3000201C7047204B984204D14FF4741243F872
:103D4000382C70471D4B984204D14FF0746043F8F3
:103D5000500C70471A4B984203D11A4943F8641C1F
:103D60007047194B984203D1184A43F87C2C70478E
:103D7000174B984203D1174843F8940C7047164BE1
:103D8000984204BF4FF03D5243F8AC2C704700BF3F
:103D900010600240286002404060024058600240CB
:103DA0007060024088600240A0600240B86002403B
:103DB000106402402864024040640240586402409B
:103DC000706402403D00002088640240400F0020E3
:103DD000A064024000003D20B86402400268164B17
:103DE00010B502EA030CCC680A684B6922438C695F
:103DF0001343CA6923430C6A1A434B6A22438C6AF1
:103E000013434A6B23438C6B1A4342EA040343EA8D
:103E10000C0202604469CB6A24F007020C6B44EA8E
:103E2000030C4CEA020242610B6943604A688260FB
:103E30008B68C36010BD00BF3F801CF0002303608F
:103E400043608360C360036143618361C361036254
:103E500043628362C362036343638363704703689F
:103E600011B143F0010301E023F001030360704747
:103E700030B5074B074A084C084DA04288BF13468F
:103E80000D4011F0005F14BFDD609D6030BD00BFCC
:103E900000600240006402400F6402407D0F7D0F0D
:103EA0000B0607D5436912B143F0800301E023F00C
:103EB00080034361802909D001F01E01036812B11B
:103EC00019430160704723EA010202607047000055
:103ED00030B5074B074A084C084DA04288BF13462F
:103EE0000D4011F0005F14BFDD609D6030BD00BF6C
:103EF00000600240006402400F6402407D0F7D0FAD
:103F000010B583790268002B2DD01C4B1C6824EA65
:103F100002021A605C68016824EA01025A600479AE
:103F20000168E2181468214311609A68016822EA66
:103F300001029A600168DA6822EA0102DA604179D6
:103F40000268102908D199680A439A60D968026802
:103F500041EA0200D86010BD01F1804C0CF59E339F
:103F60001868024307E0007900F1804303F59E33AF
:103F7000196821EA02021A6010BD00BF003C01402E
:103F800000230C22036003714271837170470000AB
:103F900003494B6918420CBF00200120704700BF45
:103FA000003C0140014B5861704700BF003C01409C
:103FB00005490A684B69034004D010420CBF002039
:103FC0000120704718467047003C0140014B586182
:103FD000704700BF003C0140F0B500231A460124A1
:103FE0000D6894402540A5422ED10327066817FA94
:103FF00003F4E44304EA060707600E7907689E406D
:104000003E4306600E79013EF6B2012E14D8866852
:1040100004EA060787604E7987689E403E438660C3
:10402000466826EA050646608D79466895401FFA7F
:1040300085FC4CEA06054560C5682540C560CC791D
:10404000C5689C402C43C46001320233102AC6D19B
:10405000F0BD00234FF6FF7101600371437183715E
:10406000C3717047036919420CBF002001207047DB
:10407000006980B27047406980B270470183704721
:10408000418370474161704730B501F00705C908A9
:104090000831AB000F2450F821509C4025EA04045D
:1040A00040F8214050F8214012FA03F31C4340F835
:1040B000214030BD10B5254B9A6802F00C02042A4D
:1040C00003D0082A03D0224B24E0224B22E05C6874
:1040D0005968620201F03F010AD55A681D4B47F644
:1040E000C07C02EA0C04A209B3FBF1F3534309E0DC
:1040F0005A6847F6C07402EA0403154C9B09B4FBE6
:10410000F1F14B43114C616801F44032D40BA11C16
:10411000B3FBF1F30D4903608C6804F0F00213095E
:104120000D4A0468D35C34FA03F343608C6804F4EA
:10413000E054A40A145D33FA04F48460896801F43D
:104140006041490B525CD340C36010BD003802404F
:104150000024F40000127A0009000020044B1A6BBE
:1041600009B1104301E022EA00001863704700BF64
:1041700000380240044B1A6C09B1104301E022EAF6
:1041800000001864704700BF00380240044B5A6CAE
:1041900009B1104301E022EA00005864704700BFF3
:1041A00000380240044B1A6A09B1104301E022EAC8
:1041B00000001862704700BF00380240044B5A6A82
:1041C00009B1104301E022EA00005862704700BFC5
:1041D0000038024008B5154B98420BD101214FF42D
:1041E0008050FFF7EBFF4FF480500021BDE80840FE
:1041F000FFF7E4BF0E49884207D14FF48040012108
:10420000FFF7D0FF4FF4804009E00A4A90420BD1FB
:104210004FF400400121FFF7C5FF4FF4004000219B
:10422000BDE80840FFF7BEBF08BD00BF0030014039
:1042300000380040003C00400B88B1F802C0028802
:1042400010B58C884CEA030CCB884CEA040C0C8922
:104250004CEA0303B1F80AC023438C8943EA0C0CEF
:104260004CEA0403CC8902F4415243EA040C42EACA
:104270000C030380B0F81CC02CF4006213041A0C69
:1042800082830B8A038210BD038819B19BB243F06D
:10429000400303E023F0400211040B0C038070473D
:1042A000808980B2704781817047038919420CBFB1
:1042B00000200120704700001B4A038890420ED066
:1042C0001A4A90420BD0B0F1804F08D0184A904261
:1042D00005D0184A904202D0174A904206D14FF6B4
:1042E0008F7203EA020C4B884CEA0303134A904294
:1042F00009D0134A904206D04FF6FF4203EA020C5F
:104300000B894CEA030303804B68C362064B0A889F
:104310009842028502D0054A904201D1897A0186ED
:1043200001238382704700BF000001400004014068
:104330000004004000080040000C00400010004055
:104340000014004041627047C1627047406A704784
:10435000008D80B27047038819B19BB243F080038F
:1043600003E023F0800211040B0C038070470388E4
:1043700019B19BB243F0010303E023F001021104E1
:104380000B0C038070470000028C22F0010370B513
:104390001E04340C0484068C8488058BB1F80CC090
:1043A00025F0730213041A0C26F002031E04330CCA
:1043B0000D884E882A4346EA0C051FFA85FC134DEA
:1043C000A8424CEA030302D0114DA84218D14FF67F
:1043D000F77603EA0605CB894FF6FB7645EA030C30
:1043E0008B880CEA06063343B1F810C04E8A4FF6AC
:1043F000FF45254046EA0C041FFA84FC4CEA0504FC
:104400008480028389684163038470BD0000014099
:1044100000040140B0F820C02CF0100230B51504A3
:104420002C0C0484B0F820C08488038B23F4E6426B
:1044300015040B882A0C2CF0200542EA03222B04D9
:104440008D89B1F802C01B0C43EA0513124DA84236
:1044500043EA0C1302D0114DA84217D14FF67F75D5
:1044600003EA050CCB894CEA0315B1F804C04FF6FA
:10447000BF732B4043EA0C134FF2FF35B1F810C065
:1044800025404C8A45EA8C0545EA840484800283F1
:1044900089688163038430BD00000140000401404D
:1044A000B0F820C02CF4807230B515042C0C0484B4
:1044B000B0F820C08488838B23F0730215040B8826
:1044C0002A0C2CF400751A432B048D89B1F802C014
:1044D0001B0C43EA0523134DA84243EA0C2302D0E8
:1044E000114DA84217D14FF2FF7503EA050CCB8995
:1044F0004CEA0325B1F804C04FF6FF332B4043EAE2
:104500000C234CF6FF75B1F810C025404C8A45EAE3
:104510000C1545EA0414848082838968C16303848E
:1045200030BD00BF0000014000040140B0F820C0D1
:104530002CF4805230B515042C0C0484B0F820C043
:104540008488838B23F4E64215040B882A0C2CF410
:10455000005542EA03222B048D89B1F802C01B0CDE
:1045600043EA0533094DA84243EA0C3302D0084D13
:10457000A84205D14BF6FF7525400C8A45EA841404
:104580008480828389680164038430BD0000014017
:104590000004014000230380438083808360838183
:1045A000C381038243827047B0F818C02CF0080220
:1045B00013041A0C41EA020303837047B0F818C0D1
:1045C0002CF4006213041A0C42EA0123038370479F
:1045D000B0F81CC02CF0080213041A0C41EA0203C4
:1045E00083837047B0F81CC02CF4006213041A0CCB
:1045F00042EA012383837047B0F8443021B16FEA67
:1046000043436FEA534301E059044B0CA0F8443094
:10461000704783899BB20AB1194301E023EA010183
:1046200081817047038A19420CBF00200120704726
:10463000C94301827047038A828911EA030092B25A
:1046400003D011420CBF002001207047C9430182F2
:104650007047828822F070031A04130C8380B0F82C
:1046600004C01FFA8CF241EA020383807047000005
:1046700008B5234B984205D110200121FFF79EFD7C
:10468000102037E01F49884207D14FF40030012144
:10469000FFF788FD4FF4003009E01B4A90420BD130
:1046A0004FF480200121FFF77DFD4FF48020002191
:1046B000BDE80840FFF776BD144B984207D14FF490
:1046C00000200121FFF76EFD4FF40020EFE71049B5
:1046D000884207D14FF480100121FFF763FD4FF4AA
:1046E0008010E4E70B4A904209D120200121FFF716
:1046F00065FD20200021BDE80840FFF75FBD08BD33
:10470000001001400044004000480040004C0040C0
:10471000005000400014014030B5B0F810E02EF415
:1047200040521304CA881B0C13430382B0F80CC018
:104730002CF4B05E2EF00C02B1F804C013040A8908
:104740000D46498942EA0C0242EA010E1B0C1FFA8F
:104750008EFC4CEA03018181828A22F440731904A1
:10476000AA890B0C43EA020185B00446818268469F
:10477000FFF7A0FC1C4B9C4202D01C48844201D194
:10478000039B00E0029BA2890FFA82FC4FF0190103
:10479000BCF1000F2A6801FB03F101DA520000E0CE
:1047A00092006423B1FBF2F1B1FBF3F212011009A4
:1047B00003FB1011A0890FFA80FEBEF1000F06DA8C
:1047C000C9003231B1FBF3F303F0070305E009013F
:1047D0003231B1FBF3F000F00F0343EA020CA4F80E
:1047E00008C005B030BD00BF0010014000140140FA
:1047F000838919B19BB243F4005303E023F40052C0
:1048000011040B0C83817047CA05D10D818070475C
:104810008188C805C00D7047CBB210B55B09012473
:1048200001F01F0114FA01F1A34201D10C3004E0A0
:10483000022B01D1103000E0143003680AB1194393
:1048400001E023EA0101016010BD038819420CBF99
:10485000002001207047C9430180704710B5CCB2D9
:104860000122640901F01F039A40012C01D18389C0
:1048700003E0022C0CBF038A838A9BB2008813409A
:1048800082B243B1080A012313FA00F111420CBFAE
:104890000020012010BD184610BD0000344B1868E0
:1048A00040F001021A6000229A60196821F0847CAD
:1048B00030492CF4803018605960186882B020F4B8
:1048C00080211960DA6000920192186840F4803209
:1048D0001A60274B1A6802F4003101910098421CBB
:1048E0000092019919B90098B0F5A06FF1D11A683A
:1048F00012F4003118BF01210191019B012B30D12D
:104900001B4B1A6C42F080501B4A1864116841F42A
:104910008040106099689960986840F400429A60FD
:104920009968164A41F4A05098605A60196841F09D
:10493000807018600E4B19688A01FBD5104A40F24E
:1049400005711160986820F0030199609A6842F03F
:10495000020098600648836803F00C0CBCF1080F55
:10496000F8D1084A4FF00061916002B0704700BF73
:104970000038024010300024007000400854400706
:10498000003C024000ED00E0002100F004B80C4BB8
:104990005B58435004310B480B4B42189A42FFF4CA
:1049A000F6AF0A4A00F003B8002342F8043B084B74
:1049B0009A42FFF4F9AFFFF771FFFBF7E5FB704791
:1049C000C027030800000020D0010020D8010020EB
:1049D000E80A0020FFF7FEBF704710B50446E1B2B9
:1049E000002000F0A1FA204610BD00002DE9F84F8C
:1049F000D0F800B0C469D0F804A0D0F80890D0F87E
:104A00000C800769466985691E4814F0C1FC594647
:104A10001D4814F041FC51461C4814F03DFC494629
:104A20001B4814F039FC41461A4814F035FC39464D
:104A3000194814F031FC3146184814F02DFC294671
:104A4000174814F029FC2146164C174814F024FC92
:104A50002168164814F020FC154A1648116814F015
:104A60001BFC15491548096814F016FC1448016828
:104A7000144814F011FC144B1448196814F00CFC81
:104A8000FEE700BFC8D50208DDD50208E6D502085A
:104A9000EFD50208F8D5020801D602080BD60208A5
:104AA00014D6020838ED00E01DD6020827D6020809
:104AB00028ED00E032D602082CED00E03DD60208D9
:104AC00030ED00E048D602083CED00E053D6020885
:104AD0001EF0040F0CBFEFF30880EFF30980FFF71F
:104AE00085BF704708B50020202100F01DFA002086
:104AF0004D2100F019FA00204D2100F015FA002098
:104B0000212100F011FAEEE708B50020202100F085
:104B10000BFA0020422100F007FA0020462100F0A5
:104B200003FA0020212100F0FFF9EEE708B500208C
:104B3000202100F0F9F90020552100F0F5F90020BE
:104B4000462100F0F1F90020212100F0EDF9EEE717
:104B500070477047704700000C4A034610B552F882
:104B600020005BB1052B09D0062B07D0072B05D001
:104B70000749084C082B08BF0C4600E0044CFFF71F
:104B8000E7FB013094FBF0F010BD00BF3CD70208FA
:104B9000007A030A00BD010530B5194B85B0044603
:104BA00053F8205058B1052809D0062807D0072807
:104BB000144B05D0144A082818BF134600E0114BC7
:104BC000B3FBF1F2531E4FF6FF71002002918B42AE
:104BD00038BF1946ADF80410ADF80C00ADF806006A
:104BE0008DF80E0001A92846FFF766FB2846012133
:104BF000FFF7BDFB2046FFF7AFFF05B030BD00BF9C
:104C00003CD70208007A030A00BD010573B52C4B9E
:104C1000164653F8205068460C46FFF71AFA0B2E3A
:104C20004BD8DFE806F00B102E171E333D4006264A
:104C3000151C2846A1B2FFF725FA3CE02846A1B290
:104C4000FFF71CFA37E02846A1B2FFF719FA32E065
:104C50004FF6FF74002000948DF8040027E04FF613
:104C6000FF740094022101248DF804408DF8051092
:104C700010E0284614B9FFF7FBF91FE0FFF7FBF936
:104C80001CE02846A1B2FFF7EDF917E000940124DB
:104C90008DF8074028466946FFF79EF920460DE04B
:104CA0000094022301E0009400238DF80730284689
:104CB0006946FFF791F9012000E000207CBD00BFAC
:104CC000ACD602082DE9F04F0C4699464149424BBB
:104CD000002808BF194689B00546B1FBF2F0FCF781
:104CE00062FAC0B2072834BF0746072700263B4BAD
:104CF0003B4953F825803B4A05EB450001EB000A90
:104D0000525D1AF8061040460136FFF7BDF9032E32
:104D1000EDD13549354E31F815004FF0000A022229
:104D20004FF0010B06A9069040468DF81D208DF826
:104D30001C208DF81EA08DF81FB0FFF74DF956F816
:104D400025603046FFF746FA30465146FFF79CFA99
:104D5000139B1299ADF804A0102B0CBF4FF4006CFC
:104D6000D446234BADF808C0544514BF4FF48274A9
:104D70005446D14514BF4FF00209D146B1EB0A00A9
:104D800018BF012033F817C0ADF80C0007214FF40D
:104D90000072ADF81410304601A9ADF80E20ADF840
:104DA00010C0ADF80640ADF80A90ADF812A0FFF7BC
:104DB00043FA30465946FFF767FA0748054A5F4409
:104DC000554514BF1546054655FA07F009B0BDE82C
:104DD000F08F00BF80DE800200BD01051CD70208F5
:104DE00072D7020810D802086CD7020894D60208BD
:104DF000ACD70208084B10B553F8204089B22046C2
:104E0000FFF751FA20460121FFF74FFA0028F9D0A9
:104E10002046FFF745FA10BD94D6020870470000FF
:104E2000F0B587B0002500910C21052A0446ADF8A5
:104E30000C500C98ADF80A1008DB082A06DD092A88
:104E400004D14FF48052ADF8042002E00026ADF802
:104E5000046020B14FF40050ADF8060001E0ADF859
:104E6000060013B1012B0AD104E04FF48063ADF8C2
:104E7000083007E04FF4C067ADF8087002E0002189
:104E8000ADF80810204A214E175D56F824602049DD
:104E9000204D095D30463A46FFF7F6F855F82450A4
:104EA0001D4B2846195D3A46FFF7EEF81B4830F8CF
:104EB00014700021022204978DF8161001278DF836
:104EC0001710304604A98DF814208DF81570FFF7DF
:104ED00083F8134B8DF8177033F8140004A904906D
:104EE0002846FFF779F80F4A52F824402046FFF78A
:104EF000BFFB20466946FFF70FFC20463946FFF707
:104F000077FC384607B0F0BDA5D7020828D70208BD
:104F10005ED60208FCD60208A0D70208C6D702084F
:104F2000BCD7020888D7020870B506460D46074B65
:104F300053F8264080212046FFF787FC0028F6D052
:104F400020462946BDE87040FFF75EBC88D70208BE
:104F500052EA030170B504460C4E08D156F82040C1
:104F600020212046FFF771FC68B1204608E056F882
:104F7000245020212846FFF768FC0028F7D0284657
:104F8000FFF746FC70BD4FF0FF3070BD88D70208B8
:104F9000274B0228F7B5044653F820500F464FF030
:104FA000000044D802228DF805208DF80400C1B914
:104FB000AA8A22F4407319041E4A1F4B080CA882C7
:104FC00032F8141033F8140041EA000202A91B4819
:104FD00093B241F8083D50F824006946FEF7FCFF03
:104FE00024E011F002060DD0124B144E33F81410C9
:104FF00002A840F8081D56F824006946FEF7ECFFA9
:105000004FF40076FB070ED50B4B0C4A33F8141007
:10501000022000918DF80400694652F8240046F4FD
:105020008076FEF7D9FFAA8A1643AE820120FEBD24
:1050300088D70208A0D60208F4D6020810D70208C2
:1050400008B5FCF7CDF8BDE80840FCF71DBB000033
:10505000F7B51F46144B164653F82050FFF77CFD5A
:10506000A0FB062300FB07331946104600230F4A16
:1050700022F002FA002406460F4628462146FFF792
:1050800061F9019402E00198431C01930199C72939
:10509000F9D92846FFF75AF900230246B24273EBCA
:1050A0000701F6D3FEBD00BF3CD7020840420F0007
:1050B000144B13B553F82030062911D8DFE801F05E
:1050C0000412161A10101D0018460021FFF73AF9B5
:1050D000002301E00198431C01930199C729F9D9E4
:1050E00000200CE01846FFF731F908E01146FFF701
:1050F00053FD04E0FFF730FD01E04FF6FF700021A3
:105100001CBD00BF3CD70208F0B51D46484B1446F5
:1051100053F8207054EA050387B0064608D1384694
:1051200002210022FFF775FA00203880B8806EE077
:1051300038B1052805D0062803D0072801D0082853
:1051400003D137A1D1E9000102E037A1D1E9000183
:1051500000FB05F304FB0133A0FB04015918354A99
:10516000002322F089F9010C01315EB1052E09D02E
:10517000062E07D0072E304B05D0304A082E18BF18
:10518000134600E02C4BB3FBF1F13046FFF704FD72
:105190003046FFF7E1FCA0FB042300FB0533194672
:1051A00010460023234A22F067F904460D4654EACC
:1051B00005032ED0B4F5803F75F100032BD20021FA
:1051C0003846FFF7D4F801A8FFF7E4F900210020E2
:1051D0000122ADF80410ADF8100001A93846ADF871
:1051E00006200394FFF7D0F838462146FFF7ACF8C5
:1051F00038460821FFF7D8F90C99114B38469955D4
:105200000021FFF79FF838460121FFF7B0F8002092
:1052100002E0012000E0022007B0F0BDAFF3008003
:10522000007A030A0000000000BD01050000000034
:105230003CD7020840420F00007A030A00BD010576
:10524000AC090020AFF30080024948688B68002158
:10525000C01A704710E000E0024B186820F002020C
:105260001A60704710E000E0024B186840F002023C
:105270001A60704710E000E0FCF716BA08B506485F
:10528000FFF766F8044B054AD96A013092FBF0F04B
:105290004B1CB0FBF3F008BD0008004000BD010549
:1052A0001FB50E4AB2FBF1F31A0C0446501CB3FBB7
:1052B000F0F1481E0023029001A90948ADF804202E
:1052C000ADF80C30ADF806308DF80E30FEF7F4FF77
:1052D0002046FFF7D3FF04B010BD00BF00BD01059D
:1052E000000800402DE9F047044688B08846414850
:1052F000414E00211746FFF73AF83E480021FFF7DC
:1053000021F816F804A03D48012606FA0AF54FF0E8
:105310000209069506A900258DF81D908DF81C90B0
:105320008DF81E508DF81F50FEF756FE4A46334842
:105330005146FEF7A9FE41462046FFF7B1FF314630
:1053400080462C48FFF707F86023ADF80430294B5E
:10535000198CADF808508AB204FA09F052FA00F13B
:1053600001EA0600ADF80600DA6AADF810509119AE
:105370004F436420B7FBF0F7BFB24FF4807303973D
:10538000ADF81430032C2FD8DFE804F0020B141D05
:1053900001A91848FEF7F8FF16480821FFF704F99D
:1053A00019E001A91348FFF735F812480821FFF763
:1053B00005F910E001A90F48FFF772F80D48082120
:1053C000FFF706F907E00B4801A9FFF7AFF8094816
:1053D0000821FFF707F901210648FFF70DF90548F5
:1053E0000121FEF7C4FF01E04FF00008404608B07D
:1053F000BDE8F08700080040A6D60208000C024075
:10540000054B8200B3F820C0012111FA02F040EAF6
:105410000C021A84704700BF00080040064BB3F826
:1054200020C0820001211FFA8CFC11FA02F02CEA44
:1054300000021A84704700BF00080040004870470F
:10544000007A030A836823F0405241EA0203836032
:105450007047836811B143F0804301E023F080433B
:1054600083607047013901298CBF002001207047FB
:1054700070B50646FCF78AFA05460020FCF78EFA5E
:1054800029786FF300012970436E012212FA06F6A3
:1054900023EA06064666456E044685B9026F084B48
:1054A000294653F82200FFF7CDFF0648C570FEF7E6
:1054B00007FB94F8600065F3C30084F8600070BDDA
:1054C0007CD702089009002073B50020FCF766FA2B
:1054D0004B4D026F0446002155F82200FFF7B2FF42
:1054E000216F55F821000021FEF7DAFB206F002123
:1054F00055F82000FEF782FBFEF726FB03238DF80C
:10550000043000238DF8073027E094F874603D4B99
:1055100054F82610486894F8741033F810203A4B69
:1055200002AE46F8082D54F821004268694653F847
:105530002200FEF751FD94F8746094F8741054F84A
:105540002630206F4A1C55F820001979D2B200236A
:10555000FEF75DFB94F87460731C84F8743094F863
:1055600074C094F875209445CFD3002684F87460F5
:1055700094F875202549206F0A7555F82000FEF72C
:10558000F1FA216F55F821000121FEF737FB314672
:105590001F48FEF764FC1E48FEF794FB94F8753034
:1055A0001C491B480B6104F140028A60FEF716FC9F
:1055B00001211748FEF753FC01211748FEF779FB3C
:1055C000206F012155F82000FEF76AFB102101220F
:1055D0000F48FEF765FC94F86030DA070DD594F8B3
:1055E000600000F00801CBB23BB1226F044B4FF0DA
:1055F000805153F82200FFF725FF01207CBD00BF3A
:105600007CD7020864D60208D0D70208940900208B
:1056100010640240540900200020014038B50020E9
:10562000FCF7BCF9314905463148FEF751FC00232F
:1056300035E095F8742055F822402178237A41F01E
:105640001000207043B1217801F00800C3B21BB9EB
:105650006068FCF77CFA0EE0B4F814C01FFA8CF214
:10566000012A08D901206168A269FCF789F823782A
:105670006FF3041323706068FCF73CFBA28A91B2BD
:10568000884209D394F800C00CF0040E5FFA8EF043
:1056900010B96068FFF7ECFE95F87430013385F8B7
:1056A000743095F8741095F875209142C1D300209C
:1056B00085F8740095F8602002F00801CBB20BB1B8
:1056C000FCF770F995F86000C1070ED495F86020DA
:1056D00002F00801CBB243B1286F064B53F820000B
:1056E0000121BDE83840FFF7B4BE38BD208000106E
:1056F000106402407CD702082DE9F043044685B0CF
:1057000000200E46FCF74AF9364F036F054600218C
:1057100057F82300FFF796FEB846334B95F8602004
:10572000002E50D042F0010285F860202F4FEA6E23
:1057300057F822004FF08051D86099605CB1052C79
:1057400009D0062C07D0072C05D0294B294F082C4F
:1057500008BF1F4600E0264FB7FBF6F10B0C5F1C9D
:10576000B1FBF7F77E1E0296234EADF80430002001
:105770001021ADF80C00ADF8061056F8220001A972
:10578000FEF79AFDB14664B1052C0AD0062C08D06C
:10579000072C06D0164A1748082C14BF0446144696
:1057A00000E0134CE96E59F82100FEF7D1FDEB6ED5
:1057B000461C94FBF6F459F823002021B4FBF7F6BD
:1057C000FEF747FF04E066F3000285F860209E6064
:1057D0002A6F054958F82200FEF7C4F9304605B093
:1057E000BDE8F0837CD702089409002084D6020823
:1057F000007A030A00BD01053CD702082DE9FF41EC
:1058000000214FF00060FEF793F94FF4E060FEF7DF
:105810004DF901200024FF228DF802008DF80300CD
:1058200068468DF800208DF80140FEF749F9A5483B
:1058300038210223017044708370C470FEF740F970
:10584000A14EA24DA0590121FEF788FC6846FEF743
:1058500000FC605969460434FEF7BEFB142CEFD1FE
:10586000042100229A48FEF70FFC032100229848E9
:10587000FEF70AFC0D2100229648FEF705FC0E21DA
:1058800000229448FEF700FC00220F219148FEF709
:10589000FBFB03214FF46040012402250027009008
:1058A0008DF805108B488DF8074069468DF8045037
:1058B0008DF80670FEF790FB182385480093694623
:1058C000FEF78AFB10202146FEF760FC21464FF4CC
:1058D0000030FEF74FFC21464FF48020FEF74AFCD3
:1058E00021464FF40020FEF745FC21464FF480107E
:1058F000FEF740FC20202146FEF748FC21464FF4ED
:105900008050FEF743FC21464FF48040FEF732FC06
:1059100021464FF40040FEF72DFC20462146FEF7BD
:1059200035FC21462846FEF731FC21464FF48030F5
:10593000FEF72CFC21464FF40030FEF727FC2146F1
:105940004FF48020FEF722FC20462146FEF712FC91
:1059500021462846FEF70EFC21460420FEF70AFCED
:1059600021460820FEF706FC21464020FEF702FCF7
:1059700021468020FEF7FEFB21464FF48070FEF7A3
:10598000F9FB3C4620464CF250310134FFF704F954
:105990000C2CF7D104200121FEF7F8FB0020FBF7C7
:1059A000FDFF0026074630460136FCF79EF8102E14
:1059B000F9D101214FF48070FEF7E8FBFEF7C4F83F
:1059C0004548DFF840810024FEF7F6F84FF44035F3
:1059D00068460195009402940394FEF7F7F83E4957
:1059E0003A6F0C6001254FF0006358F82200CB603D
:1059F0000D714C718C600C610D75FEF7B3F8396F49
:105A000058F821002946FEF7F9F829464FF480009E
:105A1000FEF7A4FB3148FEF755F93148FEF70EFAC0
:105A20002F4930480C604FF480634FF400624860A7
:105A30008B6140374FF480734FF400504B62CA6162
:105A40008F60CC600D614C6108628C622348FEF768
:105A5000C5F922482449FEF70BFA20482349FEF7EE
:105A600037FA21462248FEF724F929462048FEF756
:105A700017F929461948FEF7F2F92A463146174820
:105A8000FEF70EFA21462046FFF736FE29464FF074
:105A90000070FEF76FFB1748FBF7E2FD3046FBF79F
:105AA000E9FD154B154A16485A60F021072280F887
:105AB00023109C601A60FBF75BFA284604B0BDE82F
:105AC000F08100BF90090020D0D60208ACD60208B1
:105AD00000040240000002409409002010640240CB
